{
  "_format": "hh-sol-artifact-1",
  "contractName": "PowerBilling",
  "sourceName": "contracts/PowerBilling.sol",
  "abi": [
    {
      "inputs": [],
      "stateMutability": "nonpayable",
      "type": "constructor"
    },
    {
      "anonymous": false,
      "inputs": [
        {
          "indexed": true,
          "internalType": "address",
          "name": "device",
          "type": "address"
        },
        {
          "indexed": true,
          "internalType": "address",
          "name": "owner",
          "type": "address"
        }
      ],
      "name": "DeviceRegistered",
      "type": "event"
    },
    {
      "anonymous": false,
      "inputs": [
        {
          "indexed": true,
          "internalType": "address",
          "name": "device",
          "type": "address"
        },
        {
          "indexed": false,
          "internalType": "uint256",
          "name": "amount",
          "type": "uint256"
        }
      ],
      "name": "EnergyConsumed",
      "type": "event"
    },
    {
      "anonymous": false,
      "inputs": [
        {
          "indexed": true,
          "internalType": "address",
          "name": "payer",
          "type": "address"
        },
        {
          "indexed": false,
          "internalType": "uint256",
          "name": "amount",
          "type": "uint256"
        }
      ],
      "name": "PaymentMade",
      "type": "event"
    },
    {
      "inputs": [
        {
          "internalType": "address",
          "name": "",
          "type": "address"
        }
      ],
      "name": "balances",
      "outputs": [
        {
          "internalType": "uint256",
          "name": "",
          "type": "uint256"
        }
      ],
      "stateMutability": "view",
      "type": "function"
    },
    {
      "inputs": [
        {
          "internalType": "address",
          "name": "",
          "type": "address"
        }
      ],
      "name": "devices",
      "outputs": [
        {
          "internalType": "address",
          "name": "owner",
          "type": "address"
        },
        {
          "internalType": "uint256",
          "name": "energyConsumed",
          "type": "uint256"
        },
        {
          "internalType": "uint256",
          "name": "lastReading",
          "type": "uint256"
        },
        {
          "internalType": "bool",
          "name": "isActive",
          "type": "bool"
        }
      ],
      "stateMutability": "view",
      "type": "function"
    },
    {
      "inputs": [
        {
          "internalType": "address",
          "name": "_user",
          "type": "address"
        }
      ],
      "name": "getBalance",
      "outputs": [
        {
          "internalType": "uint256",
          "name": "",
          "type": "uint256"
        }
      ],
      "stateMutability": "view",
      "type": "function"
    },
    {
      "inputs": [
        {
          "internalType": "address",
          "name": "_device",
          "type": "address"
        }
      ],
      "name": "getDevice",
      "outputs": [
        {
          "internalType": "address",
          "name": "",
          "type": "address"
        },
        {
          "internalType": "uint256",
          "name": "",
          "type": "uint256"
        },
        {
          "internalType": "uint256",
          "name": "",
          "type": "uint256"
        },
        {
          "internalType": "bool",
          "name": "",
          "type": "bool"
        }
      ],
      "stateMutability": "view",
      "type": "function"
    },
    {
      "inputs": [],
      "name": "owner",
      "outputs": [
        {
          "internalType": "address",
          "name": "",
          "type": "address"
        }
      ],
      "stateMutability": "view",
      "type": "function"
    },
    {
      "inputs": [],
      "name": "payBill",
      "outputs": [],
      "stateMutability": "payable",
      "type": "function"
    },
    {
      "inputs": [],
      "name": "ratePerUnit",
      "outputs": [
        {
          "internalType": "uint256",
          "name": "",
          "type": "uint256"
        }
      ],
      "stateMutability": "view",
      "type": "function"
    },
    {
      "inputs": [
        {
          "internalType": "address",
          "name": "_device",
          "type": "address"
        },
        {
          "internalType": "uint256",
          "name": "_energy",
          "type": "uint256"
        }
      ],
      "name": "recordConsumption",
      "outputs": [],
      "stateMutability": "nonpayable",
      "type": "function"
    },
    {
      "inputs": [
        {
          "internalType": "address",
          "name": "_device",
          "type": "address"
        },
        {
          "internalType": "address",
          "name": "_owner",
          "type": "address"
        }
      ],
      "name": "registerDevice",
      "outputs": [],
      "stateMutability": "nonpayable",
      "type": "function"
    }
  ],
  "bytecode": "0x6080604052670de0b6b3a764000060035534801561001c57600080fd5b5033600260006101000a81548173ffffffffffffffffffffffffffffffffffffffff021916908373ffffffffffffffffffffffffffffffffffffffff160217905550610ee18061006d6000396000f3fe6080604052600436106100855760003560e01c80637a781658116100595780637a781658146101595780638da5cb5b14610163578063c0ce67e41461018e578063e7b4cac6146101b9578063f8b2cb4f146101f957610085565b8062d553181461008a57806327e235e3146100ca5780633406f27f1461010757806336cbf04614610130575b600080fd5b34801561009657600080fd5b506100b160048036038101906100ac9190610aae565b610236565b6040516100c19493929190610b1e565b60405180910390f35b3480156100d657600080fd5b506100f160048036038101906100ec9190610aae565b610332565b6040516100fe9190610b63565b60405180910390f35b34801561011357600080fd5b5061012e60048036038101906101299190610baa565b61034a565b005b34801561013c57600080fd5b5061015760048036038101906101529190610bea565b610592565b005b610161610777565b005b34801561016f57600080fd5b50610178610979565b6040516101859190610c2a565b60405180910390f35b34801561019a57600080fd5b506101a361099f565b6040516101b09190610b63565b60405180910390f35b3480156101c557600080fd5b506101e060048036038101906101db9190610aae565b6109a5565b6040516101f09493929190610b1e565b60405180910390f35b34801561020557600080fd5b50610220600480360381019061021b9190610aae565b610a02565b60405161022d9190610b63565b60405180910390f35b60008060008060008060008773ffffffffffffffffffffffffffffffffffffffff1673ffffffffffffffffffffffffffffffffffffffff1681526020019081526020016000206040518060800160405290816000820160009054906101000a900473ffffffffffffffffffffffffffffffffffffffff1673ffffffffffffffffffffffffffffffffffffffff1673ffffffffffffffffffffffffffffffffffffffff16815260200160018201548152602001600282015481526020016003820160009054906101000a900460ff161515151581525050905080600001518160200151826040015183606001519450945094509450509193509193565b60016020528060005260406000206000915090505481565b6000808373ffffffffffffffffffffffffffffffffffffffff1673ffffffffffffffffffffffffffffffffffffffff16815260200190815260200160002060030160009054906101000a900460ff166103d8576040517f08c379a00000000000000000000000000000000000000000000000000000000081526004016103cf90610ca2565b60405180910390fd5b806000808473ffffffffffffffffffffffffffffffffffffffff1673ffffffffffffffffffffffffffffffffffffffff16815260200190815260200160002060010160008282546104299190610cf1565b92505081905550426000808473ffffffffffffffffffffffffffffffffffffffff1673ffffffffffffffffffffffffffffffffffffffff168152602001908152602001600020600201819055506000600354826104869190610d25565b905080600160008060008773ffffffffffffffffffffffffffffffffffffffff1673ffffffffffffffffffffffffffffffffffffffff16815260200190815260200160002060000160009054906101000a900473ffffffffffffffffffffffffffffffffffffffff1673ffffffffffffffffffffffffffffffffffffffff1673ffffffffffffffffffffffffffffffffffffffff16815260200190815260200160002060008282546105389190610cf1565b925050819055508273ffffffffffffffffffffffffffffffffffffffff167f4cecac5779c514d9ace203777c2b9e1ca243798a762c18c1eb10326cfdef9a66836040516105859190610b63565b60405180910390a2505050565b600260009054906101000a900473ffffffffffffffffffffffffffffffffffffffff1673ffffffffffffffffffffffffffffffffffffffff163373ffffffffffffffffffffffffffffffffffffffff1614610622576040517f08c379a000000000000000000000000000000000000000000000000000000000815260040161061990610db3565b60405180910390fd5b60405180608001604052808273ffffffffffffffffffffffffffffffffffffffff16815260200160008152602001428152602001600115158152506000808473ffffffffffffffffffffffffffffffffffffffff1673ffffffffffffffffffffffffffffffffffffffff16815260200190815260200160002060008201518160000160006101000a81548173ffffffffffffffffffffffffffffffffffffffff021916908373ffffffffffffffffffffffffffffffffffffffff160217905550602082015181600101556040820151816002015560608201518160030160006101000a81548160ff0219169083151502179055509050508073ffffffffffffffffffffffffffffffffffffffff168273ffffffffffffffffffffffffffffffffffffffff167fd1bf5725f9e2c326501a9777c6a5a3819cd20ac3c16efa678f1c596ddbcc03e260405160405180910390a35050565b6000600160003373ffffffffffffffffffffffffffffffffffffffff1673ffffffffffffffffffffffffffffffffffffffff16815260200190815260200160002054116107f9576040517f08c379a00000000000000000000000000000000000000000000000000000000081526004016107f090610e1f565b60405180910390fd5b600160003373ffffffffffffffffffffffffffffffffffffffff1673ffffffffffffffffffffffffffffffffffffffff1681526020019081526020016000205434101561087b576040517f08c379a000000000000000000000000000000000000000000000000000000000815260040161087290610e8b565b60405180910390fd5b6000600160003373ffffffffffffffffffffffffffffffffffffffff1673ffffffffffffffffffffffffffffffffffffffff16815260200190815260200160002081905550600260009054906101000a900473ffffffffffffffffffffffffffffffffffffffff1673ffffffffffffffffffffffffffffffffffffffff166108fc349081150290604051600060405180830381858888f19350505050158015610928573d6000803e3d6000fd5b503373ffffffffffffffffffffffffffffffffffffffff167f3a2d0e41c506b136330c6e5e0295ccbf0966daece99bfe7c89020cc01dbfb8d63460405161096f9190610b63565b60405180910390a2565b600260009054906101000a900473ffffffffffffffffffffffffffffffffffffffff1681565b60035481565b60006020528060005260406000206000915090508060000160009054906101000a900473ffffffffffffffffffffffffffffffffffffffff16908060010154908060020154908060030160009054906101000a900460ff16905084565b6000600160008373ffffffffffffffffffffffffffffffffffffffff1673ffffffffffffffffffffffffffffffffffffffff168152602001908152602001600020549050919050565b600080fd5b600073ffffffffffffffffffffffffffffffffffffffff82169050919050565b6000610a7b82610a50565b9050919050565b610a8b81610a70565b8114610a9657600080fd5b50565b600081359050610aa881610a82565b92915050565b600060208284031215610ac457610ac3610a4b565b5b6000610ad284828501610a99565b91505092915050565b610ae481610a70565b82525050565b6000819050919050565b610afd81610aea565b82525050565b60008115159050919050565b610b1881610b03565b82525050565b6000608082019050610b336000830187610adb565b610b406020830186610af4565b610b4d6040830185610af4565b610b5a6060830184610b0f565b95945050505050565b6000602082019050610b786000830184610af4565b92915050565b610b8781610aea565b8114610b9257600080fd5b50565b600081359050610ba481610b7e565b92915050565b60008060408385031215610bc157610bc0610a4b565b5b6000610bcf85828601610a99565b9250506020610be085828601610b95565b9150509250929050565b60008060408385031215610c0157610c00610a4b565b5b6000610c0f85828601610a99565b9250506020610c2085828601610a99565b9150509250929050565b6000602082019050610c3f6000830184610adb565b92915050565b600082825260208201905092915050565b7f446576696365206e6f7420616374697665000000000000000000000000000000600082015250565b6000610c8c601183610c45565b9150610c9782610c56565b602082019050919050565b60006020820190508181036000830152610cbb81610c7f565b9050919050565b7f4e487b7100000000000000000000000000000000000000000000000000000000600052601160045260246000fd5b6000610cfc82610aea565b9150610d0783610aea565b9250828201905080821115610d1f57610d1e610cc2565b5b92915050565b6000610d3082610aea565b9150610d3b83610aea565b9250828202610d4981610aea565b91508282048414831517610d6057610d5f610cc2565b5b5092915050565b7f4f6e6c79206f776e65722063616e2063616c6c20746869730000000000000000600082015250565b6000610d9d601883610c45565b9150610da882610d67565b602082019050919050565b60006020820190508181036000830152610dcc81610d90565b9050919050565b7f4e6f206f75747374616e64696e672062616c616e636500000000000000000000600082015250565b6000610e09601683610c45565b9150610e1482610dd3565b602082019050919050565b60006020820190508181036000830152610e3881610dfc565b9050919050565b7f496e73756666696369656e74207061796d656e74000000000000000000000000600082015250565b6000610e75601483610c45565b9150610e8082610e3f565b602082019050919050565b60006020820190508181036000830152610ea481610e68565b905091905056fea264697066735822122075994e5500b44e5667d62df4dfbcaaabc4fa18d67281f66f7e6f56d323a4343164736f6c63430008130033",
  "linkReferences": {},
  "deployedLinkReferences": {}
}